{
  "contractName": "Driver",
  "abi": [
    {
      "anonymous": false,
      "inputs": [
        {
          "components": [
            {
              "internalType": "address",
              "name": "_driverAddress",
              "type": "address"
            },
            {
              "internalType": "uint256",
              "name": "_distanceTravelled",
              "type": "uint256"
            },
            {
              "internalType": "string",
              "name": "location",
              "type": "string"
            },
            {
              "internalType": "string",
              "name": "_date",
              "type": "string"
            },
            {
              "internalType": "string",
              "name": "_time",
              "type": "string"
            }
          ],
          "indexed": false,
          "internalType": "struct Driver.Drivers",
          "name": "_driver",
          "type": "tuple"
        }
      ],
      "name": "ForDriver",
      "type": "event"
    },
    {
      "inputs": [
        {
          "internalType": "string",
          "name": "",
          "type": "string"
        }
      ],
      "name": "UserUI",
      "outputs": [
        {
          "internalType": "bool",
          "name": "",
          "type": "bool"
        }
      ],
      "stateMutability": "view",
      "type": "function",
      "constant": true
    },
    {
      "inputs": [
        {
          "internalType": "address",
          "name": "",
          "type": "address"
        }
      ],
      "name": "acceptUser",
      "outputs": [
        {
          "internalType": "bool",
          "name": "",
          "type": "bool"
        }
      ],
      "stateMutability": "view",
      "type": "function",
      "constant": true
    },
    {
      "inputs": [
        {
          "internalType": "address",
          "name": "",
          "type": "address"
        }
      ],
      "name": "driver",
      "outputs": [
        {
          "internalType": "address",
          "name": "_driverAddress",
          "type": "address"
        },
        {
          "internalType": "uint256",
          "name": "_distanceTravelled",
          "type": "uint256"
        },
        {
          "internalType": "string",
          "name": "location",
          "type": "string"
        },
        {
          "internalType": "string",
          "name": "_date",
          "type": "string"
        },
        {
          "internalType": "string",
          "name": "_time",
          "type": "string"
        }
      ],
      "stateMutability": "view",
      "type": "function",
      "constant": true
    },
    {
      "inputs": [
        {
          "internalType": "address",
          "name": "",
          "type": "address"
        }
      ],
      "name": "driverCode",
      "outputs": [
        {
          "internalType": "uint256",
          "name": "",
          "type": "uint256"
        }
      ],
      "stateMutability": "view",
      "type": "function",
      "constant": true
    },
    {
      "inputs": [
        {
          "internalType": "address",
          "name": "",
          "type": "address"
        }
      ],
      "name": "endRide",
      "outputs": [
        {
          "internalType": "bool",
          "name": "",
          "type": "bool"
        }
      ],
      "stateMutability": "view",
      "type": "function",
      "constant": true
    },
    {
      "inputs": [
        {
          "internalType": "address",
          "name": "",
          "type": "address"
        }
      ],
      "name": "forUser",
      "outputs": [
        {
          "internalType": "address",
          "name": "_driverAddress",
          "type": "address"
        },
        {
          "internalType": "uint256",
          "name": "_distanceTravelled",
          "type": "uint256"
        },
        {
          "internalType": "string",
          "name": "location",
          "type": "string"
        },
        {
          "internalType": "string",
          "name": "_date",
          "type": "string"
        },
        {
          "internalType": "string",
          "name": "_time",
          "type": "string"
        }
      ],
      "stateMutability": "view",
      "type": "function",
      "constant": true
    },
    {
      "inputs": [
        {
          "internalType": "address",
          "name": "",
          "type": "address"
        },
        {
          "internalType": "uint256",
          "name": "",
          "type": "uint256"
        }
      ],
      "name": "showDriver",
      "outputs": [
        {
          "internalType": "address",
          "name": "_user",
          "type": "address"
        },
        {
          "internalType": "address",
          "name": "_driver",
          "type": "address"
        },
        {
          "internalType": "uint256",
          "name": "_fare",
          "type": "uint256"
        },
        {
          "internalType": "string",
          "name": "_pickup",
          "type": "string"
        },
        {
          "internalType": "string",
          "name": "_drop",
          "type": "string"
        },
        {
          "internalType": "string",
          "name": "_carType",
          "type": "string"
        },
        {
          "internalType": "string",
          "name": "_date",
          "type": "string"
        }
      ],
      "stateMutability": "view",
      "type": "function",
      "constant": true
    },
    {
      "inputs": [
        {
          "internalType": "address",
          "name": "",
          "type": "address"
        },
        {
          "internalType": "uint256",
          "name": "",
          "type": "uint256"
        }
      ],
      "name": "showUser",
      "outputs": [
        {
          "internalType": "address",
          "name": "_user",
          "type": "address"
        },
        {
          "internalType": "address",
          "name": "_driver",
          "type": "address"
        },
        {
          "internalType": "uint256",
          "name": "_fare",
          "type": "uint256"
        },
        {
          "internalType": "string",
          "name": "_pickup",
          "type": "string"
        },
        {
          "internalType": "string",
          "name": "_drop",
          "type": "string"
        },
        {
          "internalType": "string",
          "name": "_carType",
          "type": "string"
        },
        {
          "internalType": "string",
          "name": "_date",
          "type": "string"
        }
      ],
      "stateMutability": "view",
      "type": "function",
      "constant": true
    },
    {
      "inputs": [],
      "name": "someCode",
      "outputs": [
        {
          "internalType": "uint256",
          "name": "",
          "type": "uint256"
        }
      ],
      "stateMutability": "view",
      "type": "function",
      "constant": true
    },
    {
      "inputs": [
        {
          "internalType": "address",
          "name": "",
          "type": "address"
        }
      ],
      "name": "startRide",
      "outputs": [
        {
          "internalType": "bool",
          "name": "",
          "type": "bool"
        }
      ],
      "stateMutability": "view",
      "type": "function",
      "constant": true
    },
    {
      "inputs": [
        {
          "internalType": "address",
          "name": "",
          "type": "address"
        }
      ],
      "name": "startRideUser",
      "outputs": [
        {
          "internalType": "bool",
          "name": "",
          "type": "bool"
        }
      ],
      "stateMutability": "view",
      "type": "function",
      "constant": true
    },
    {
      "inputs": [],
      "name": "totalCount",
      "outputs": [
        {
          "internalType": "uint256",
          "name": "",
          "type": "uint256"
        }
      ],
      "stateMutability": "view",
      "type": "function",
      "constant": true
    },
    {
      "inputs": [
        {
          "internalType": "address",
          "name": "",
          "type": "address"
        }
      ],
      "name": "userAddress",
      "outputs": [
        {
          "internalType": "address",
          "name": "",
          "type": "address"
        }
      ],
      "stateMutability": "view",
      "type": "function",
      "constant": true
    },
    {
      "inputs": [
        {
          "internalType": "address",
          "name": "",
          "type": "address"
        }
      ],
      "name": "userCode",
      "outputs": [
        {
          "internalType": "uint256",
          "name": "",
          "type": "uint256"
        }
      ],
      "stateMutability": "view",
      "type": "function",
      "constant": true
    },
    {
      "inputs": [
        {
          "internalType": "address",
          "name": "_driverAddress",
          "type": "address"
        },
        {
          "internalType": "uint256",
          "name": "_distanceTravelled",
          "type": "uint256"
        },
        {
          "internalType": "address",
          "name": "_user",
          "type": "address"
        },
        {
          "internalType": "string",
          "name": "_location",
          "type": "string"
        },
        {
          "internalType": "string",
          "name": "_date",
          "type": "string"
        },
        {
          "internalType": "string",
          "name": "_time",
          "type": "string"
        },
        {
          "internalType": "string",
          "name": "userTime",
          "type": "string"
        }
      ],
      "name": "Accept",
      "outputs": [
        {
          "internalType": "uint256",
          "name": "",
          "type": "uint256"
        }
      ],
      "stateMutability": "nonpayable",
      "type": "function"
    },
    {
      "inputs": [],
      "name": "Passcode",
      "outputs": [
        {
          "internalType": "uint256",
          "name": "",
          "type": "uint256"
        }
      ],
      "stateMutability": "view",
      "type": "function",
      "constant": true
    },
    {
      "inputs": [
        {
          "internalType": "address",
          "name": "_driver",
          "type": "address"
        },
        {
          "internalType": "address",
          "name": "_user",
          "type": "address"
        }
      ],
      "name": "startRideForDriver",
      "outputs": [],
      "stateMutability": "nonpayable",
      "type": "function"
    },
    {
      "inputs": [
        {
          "internalType": "address",
          "name": "_driver",
          "type": "address"
        },
        {
          "internalType": "address",
          "name": "_user",
          "type": "address"
        },
        {
          "internalType": "uint256",
          "name": "_fare",
          "type": "uint256"
        },
        {
          "internalType": "string",
          "name": "_pickup",
          "type": "string"
        },
        {
          "internalType": "string",
          "name": "_drop",
          "type": "string"
        },
        {
          "internalType": "string",
          "name": "_carType",
          "type": "string"
        },
        {
          "internalType": "string",
          "name": "_date",
          "type": "string"
        }
      ],
      "name": "endRideForDriver",
      "outputs": [],
      "stateMutability": "nonpayable",
      "type": "function"
    },
    {
      "inputs": [
        {
          "internalType": "address",
          "name": "_driver",
          "type": "address"
        }
      ],
      "name": "returnDriver",
      "outputs": [
        {
          "components": [
            {
              "internalType": "address",
              "name": "_user",
              "type": "address"
            },
            {
              "internalType": "address",
              "name": "_driver",
              "type": "address"
            },
            {
              "internalType": "uint256",
              "name": "_fare",
              "type": "uint256"
            },
            {
              "internalType": "string",
              "name": "_pickup",
              "type": "string"
            },
            {
              "internalType": "string",
              "name": "_drop",
              "type": "string"
            },
            {
              "internalType": "string",
              "name": "_carType",
              "type": "string"
            },
            {
              "internalType": "string",
              "name": "_date",
              "type": "string"
            }
          ],
          "internalType": "struct Driver.Show[]",
          "name": "",
          "type": "tuple[]"
        }
      ],
      "stateMutability": "view",
      "type": "function",
      "constant": true
    },
    {
      "inputs": [
        {
          "internalType": "address",
          "name": "_user",
          "type": "address"
        }
      ],
      "name": "returnUser",
      "outputs": [
        {
          "components": [
            {
              "internalType": "address",
              "name": "_user",
              "type": "address"
            },
            {
              "internalType": "address",
              "name": "_driver",
              "type": "address"
            },
            {
              "internalType": "uint256",
              "name": "_fare",
              "type": "uint256"
            },
            {
              "internalType": "string",
              "name": "_pickup",
              "type": "string"
            },
            {
              "internalType": "string",
              "name": "_drop",
              "type": "string"
            },
            {
              "internalType": "string",
              "name": "_carType",
              "type": "string"
            },
            {
              "internalType": "string",
              "name": "_date",
              "type": "string"
            }
          ],
          "internalType": "struct Driver.Show[]",
          "name": "",
          "type": "tuple[]"
        }
      ],
      "stateMutability": "view",
      "type": "function",
      "constant": true
    }
  ],
  "bytecode": "0x60806040526000600d5534801561001557600080fd5b50612ec7806100256000396000f3fe608060405234801561001057600080fd5b506004361061012c5760003560e01c8063963e7d9c116100ad578063bb8d6b1d11610071578063bb8d6b1d146103c5578063e77cc00f146103f5578063ea51f37c14610425578063f80b353414610459578063fb72addc146104775761012c565b8063963e7d9c146102cb5780639d89c11d146102fb578063a0d8021b1461032b578063a8ab699014610361578063b6347b64146103955761012c565b8063289ba42f116100f4578063289ba42f146101fb57806334eafb1114610231578063360500cc1461024f5780636d43e95e1461027f578063910bc1401461029b5761012c565b80630117d7371461013157806307f841701461014d57806308bdc24d1461016b57806312769ed21461019b5780631478a95c146101cb575b600080fd5b61014b60048036036101469190810190612427565b6104a7565b005b610155610962565b6040516101629190612bdf565b60405180910390f35b610185600480360361018091908101906123c2565b610968565b6040516101929190612ba2565b60405180910390f35b6101b560048036036101b091908101906123c2565b610988565b6040516101c29190612ba2565b60405180910390f35b6101e560048036036101e09190810190612561565b6109a8565b6040516101f29190612bdf565b60405180910390f35b61021560048036036102109190810190612525565b610e33565b6040516102289796959493929190612a8d565b60405180910390f35b61023961112f565b6040516102469190612bdf565b60405180910390f35b610269600480360361026491908101906123c2565b611135565b6040516102769190612a72565b60405180910390f35b610299600480360361029491908101906123eb565b611168565b005b6102b560048036036102b091908101906123c2565b611274565b6040516102c29190612ba2565b60405180910390f35b6102e560048036036102e091908101906123c2565b611294565b6040516102f29190612bdf565b60405180910390f35b6103156004803603610310919081019061265f565b6112ac565b6040516103229190612ba2565b60405180910390f35b61034560048036036103409190810190612525565b6112e2565b6040516103589796959493929190612a8d565b60405180910390f35b61037b600480360361037691908101906123c2565b6115de565b60405161038c959493929190612b18565b60405180910390f35b6103af60048036036103aa91908101906123c2565b6117fc565b6040516103bc9190612ba2565b60405180910390f35b6103df60048036036103da91908101906123c2565b61181c565b6040516103ec9190612b80565b60405180910390f35b61040f600480360361040a91908101906123c2565b611bf8565b60405161041c9190612b80565b60405180910390f35b61043f600480360361043a91908101906123c2565b611fd4565b604051610450959493929190612b18565b60405180910390f35b6104616121f2565b60405161046e9190612bdf565b60405180910390f35b610491600480360361048c91908101906123c2565b612233565b60405161049e9190612bdf565b60405180910390f35b6001600760008973ffffffffffffffffffffffffffffffffffffffff1673ffffffffffffffffffffffffffffffffffffffff16815260200190815260200160002060006101000a81548160ff0219169083151502179055506000600160008873ffffffffffffffffffffffffffffffffffffffff1673ffffffffffffffffffffffffffffffffffffffff16815260200190815260200160002060006101000a81548160ff0219169083151502179055506000600860008873ffffffffffffffffffffffffffffffffffffffff1673ffffffffffffffffffffffffffffffffffffffff16815260200190815260200160002060006101000a81548160ff021916908315150217905550600a60008773ffffffffffffffffffffffffffffffffffffffff1673ffffffffffffffffffffffffffffffffffffffff1681526020019081526020016000206040518060e001604052808873ffffffffffffffffffffffffffffffffffffffff1681526020018973ffffffffffffffffffffffffffffffffffffffff16815260200187815260200186815260200185815260200184815260200183815250908060018154018082558091505060019003906000526020600020906007020160009091909190915060008201518160000160006101000a81548173ffffffffffffffffffffffffffffffffffffffff021916908373ffffffffffffffffffffffffffffffffffffffff16021790555060208201518160010160006101000a81548173ffffffffffffffffffffffffffffffffffffffff021916908373ffffffffffffffffffffffffffffffffffffffff16021790555060408201518160020155606082015181600301908051906020019061072a92919061224b565b50608082015181600401908051906020019061074792919061224b565b5060a082015181600501908051906020019061076492919061224b565b5060c082015181600601908051906020019061078192919061224b565b505050600b60008873ffffffffffffffffffffffffffffffffffffffff1673ffffffffffffffffffffffffffffffffffffffff1681526020019081526020016000206040518060e001604052808873ffffffffffffffffffffffffffffffffffffffff1681526020018973ffffffffffffffffffffffffffffffffffffffff16815260200187815260200186815260200185815260200184815260200183815250908060018154018082558091505060019003906000526020600020906007020160009091909190915060008201518160000160006101000a81548173ffffffffffffffffffffffffffffffffffffffff021916908373ffffffffffffffffffffffffffffffffffffffff16021790555060208201518160010160006101000a81548173ffffffffffffffffffffffffffffffffffffffff021916908373ffffffffffffffffffffffffffffffffffffffff1602179055506040820151816002015560608201518160030190805190602001906108ff92919061224b565b50608082015181600401908051906020019061091c92919061224b565b5060a082015181600501908051906020019061093992919061224b565b5060c082015181600601908051906020019061095692919061224b565b50505050505050505050565b600c5481565b60016020528060005260406000206000915054906101000a900460ff1681565b60086020528060005260406000206000915054906101000a900460ff1681565b60006040518060a001604052808973ffffffffffffffffffffffffffffffffffffffff168152602001888152602001868152602001858152602001848152506000808a73ffffffffffffffffffffffffffffffffffffffff1673ffffffffffffffffffffffffffffffffffffffff16815260200190815260200160002060008201518160000160006101000a81548173ffffffffffffffffffffffffffffffffffffffff021916908373ffffffffffffffffffffffffffffffffffffffff160217905550602082015181600101556040820151816002019080519060200190610a9292919061224b565b506060820151816003019080519060200190610aaf92919061224b565b506080820151816004019080519060200190610acc92919061224b565b509050506040518060a001604052808973ffffffffffffffffffffffffffffffffffffffff16815260200188815260200186815260200185815260200184815250600260008873ffffffffffffffffffffffffffffffffffffffff1673ffffffffffffffffffffffffffffffffffffffff16815260200190815260200160002060008201518160000160006101000a81548173ffffffffffffffffffffffffffffffffffffffff021916908373ffffffffffffffffffffffffffffffffffffffff160217905550602082015181600101556040820151816002019080519060200190610bb992919061224b565b506060820151816003019080519060200190610bd692919061224b565b506080820151816004019080519060200190610bf392919061224b565b5090505060018060008873ffffffffffffffffffffffffffffffffffffffff1673ffffffffffffffffffffffffffffffffffffffff16815260200190815260200160002060006101000a81548160ff0219169083151502179055507f628b8b9be50aaa062628945c3df00e53e5de9bf32e03ffb2333386404ac991f06000808a73ffffffffffffffffffffffffffffffffffffffff1673ffffffffffffffffffffffffffffffffffffffff168152602001908152602001600020604051610cba9190612bbd565b60405180910390a185600560008a73ffffffffffffffffffffffffffffffffffffffff1673ffffffffffffffffffffffffffffffffffffffff16815260200190815260200160002060006101000a81548173ffffffffffffffffffffffffffffffffffffffff021916908373ffffffffffffffffffffffffffffffffffffffff160217905550610d486121f2565b600c819055506001600983604051610d609190612a1e565b908152602001604051809103902060006101000a81548160ff021916908315150217905550600d60008154809291906001019190505550600c54600360008a73ffffffffffffffffffffffffffffffffffffffff1673ffffffffffffffffffffffffffffffffffffffff16815260200190815260200160002081905550600c54600460008873ffffffffffffffffffffffffffffffffffffffff1673ffffffffffffffffffffffffffffffffffffffff16815260200190815260200160002081905550600c549050979650505050505050565b600b6020528160005260406000208181548110610e4c57fe5b9060005260206000209060070201600091509150508060000160009054906101000a900473ffffffffffffffffffffffffffffffffffffffff16908060010160009054906101000a900473ffffffffffffffffffffffffffffffffffffffff1690806002015490806003018054600181600116156101000203166002900480601f016020809104026020016040519081016040528092919081815260200182805460018160011615610100020316600290048015610f4b5780601f10610f2057610100808354040283529160200191610f4b565b820191906000526020600020905b815481529060010190602001808311610f2e57829003601f168201915b505050505090806004018054600181600116156101000203166002900480601f016020809104026020016040519081016040528092919081815260200182805460018160011615610100020316600290048015610fe95780601f10610fbe57610100808354040283529160200191610fe9565b820191906000526020600020905b815481529060010190602001808311610fcc57829003601f168201915b505050505090806005018054600181600116156101000203166002900480601f0160208091040260200160405190810160405280929190818152602001828054600181600116156101000203166002900480156110875780601f1061105c57610100808354040283529160200191611087565b820191906000526020600020905b81548152906001019060200180831161106a57829003601f168201915b505050505090806006018054600181600116156101000203166002900480601f0160208091040260200160405190810160405280929190818152602001828054600181600116156101000203166002900480156111255780601f106110fa57610100808354040283529160200191611125565b820191906000526020600020905b81548152906001019060200180831161110857829003601f168201915b5050505050905087565b600d5481565b60056020528060005260406000206000915054906101000a900473ffffffffffffffffffffffffffffffffffffffff1681565b6000600760008473ffffffffffffffffffffffffffffffffffffffff1673ffffffffffffffffffffffffffffffffffffffff16815260200190815260200160002060006101000a81548160ff0219169083151502179055506001600660008473ffffffffffffffffffffffffffffffffffffffff1673ffffffffffffffffffffffffffffffffffffffff16815260200190815260200160002060006101000a81548160ff0219169083151502179055506001600860008373ffffffffffffffffffffffffffffffffffffffff1673ffffffffffffffffffffffffffffffffffffffff16815260200190815260200160002060006101000a81548160ff0219169083151502179055505050565b60066020528060005260406000206000915054906101000a900460ff1681565b60036020528060005260406000206000915090505481565b6009818051602081018201805184825260208301602085012081835280955050505050506000915054906101000a900460ff1681565b600a60205281600052604060002081815481106112fb57fe5b9060005260206000209060070201600091509150508060000160009054906101000a900473ffffffffffffffffffffffffffffffffffffffff16908060010160009054906101000a900473ffffffffffffffffffffffffffffffffffffffff1690806002015490806003018054600181600116156101000203166002900480601f0160208091040260200160405190810160405280929190818152602001828054600181600116156101000203166002900480156113fa5780601f106113cf576101008083540402835291602001916113fa565b820191906000526020600020905b8154815290600101906020018083116113dd57829003601f168201915b505050505090806004018054600181600116156101000203166002900480601f0160208091040260200160405190810160405280929190818152602001828054600181600116156101000203166002900480156114985780601f1061146d57610100808354040283529160200191611498565b820191906000526020600020905b81548152906001019060200180831161147b57829003601f168201915b505050505090806005018054600181600116156101000203166002900480601f0160208091040260200160405190810160405280929190818152602001828054600181600116156101000203166002900480156115365780601f1061150b57610100808354040283529160200191611536565b820191906000526020600020905b81548152906001019060200180831161151957829003601f168201915b505050505090806006018054600181600116156101000203166002900480601f0160208091040260200160405190810160405280929190818152602001828054600181600116156101000203166002900480156115d45780601f106115a9576101008083540402835291602001916115d4565b820191906000526020600020905b8154815290600101906020018083116115b757829003601f168201915b5050505050905087565b60026020528060005260406000206000915090508060000160009054906101000a900473ffffffffffffffffffffffffffffffffffffffff1690806001015490806002018054600181600116156101000203166002900480601f0160208091040260200160405190810160405280929190818152602001828054600181600116156101000203166002900480156116b65780601f1061168b576101008083540402835291602001916116b6565b820191906000526020600020905b81548152906001019060200180831161169957829003601f168201915b505050505090806003018054600181600116156101000203166002900480601f0160208091040260200160405190810160405280929190818152602001828054600181600116156101000203166002900480156117545780601f1061172957610100808354040283529160200191611754565b820191906000526020600020905b81548152906001019060200180831161173757829003601f168201915b505050505090806004018054600181600116156101000203166002900480601f0160208091040260200160405190810160405280929190818152602001828054600181600116156101000203166002900480156117f25780601f106117c7576101008083540402835291602001916117f2565b820191906000526020600020905b8154815290600101906020018083116117d557829003601f168201915b5050505050905085565b60076020528060005260406000206000915054906101000a900460ff1681565b6060600a60008373ffffffffffffffffffffffffffffffffffffffff1673ffffffffffffffffffffffffffffffffffffffff168152602001908152602001600020805480602002602001604051908101604052809291908181526020016000905b82821015611bed57838290600052602060002090600702016040518060e00160405290816000820160009054906101000a900473ffffffffffffffffffffffffffffffffffffffff1673ffffffffffffffffffffffffffffffffffffffff1673ffffffffffffffffffffffffffffffffffffffff1681526020016001820160009054906101000a900473ffffffffffffffffffffffffffffffffffffffff1673ffffffffffffffffffffffffffffffffffffffff1673ffffffffffffffffffffffffffffffffffffffff16815260200160028201548152602001600382018054600181600116156101000203166002900480601f0160208091040260200160405190810160405280929190818152602001828054600181600116156101000203166002900480156119ef5780601f106119c4576101008083540402835291602001916119ef565b820191906000526020600020905b8154815290600101906020018083116119d257829003601f168201915b50505050508152602001600482018054600181600116156101000203166002900480601f016020809104026020016040519081016040528092919081815260200182805460018160011615610100020316600290048015611a915780601f10611a6657610100808354040283529160200191611a91565b820191906000526020600020905b815481529060010190602001808311611a7457829003601f168201915b50505050508152602001600582018054600181600116156101000203166002900480601f016020809104026020016040519081016040528092919081815260200182805460018160011615610100020316600290048015611b335780601f10611b0857610100808354040283529160200191611b33565b820191906000526020600020905b815481529060010190602001808311611b1657829003601f168201915b50505050508152602001600682018054600181600116156101000203166002900480601f016020809104026020016040519081016040528092919081815260200182805460018160011615610100020316600290048015611bd55780601f10611baa57610100808354040283529160200191611bd5565b820191906000526020600020905b815481529060010190602001808311611bb857829003601f168201915b5050505050815250508152602001906001019061187d565b505050509050919050565b6060600b60008373ffffffffffffffffffffffffffffffffffffffff1673ffffffffffffffffffffffffffffffffffffffff168152602001908152602001600020805480602002602001604051908101604052809291908181526020016000905b82821015611fc957838290600052602060002090600702016040518060e00160405290816000820160009054906101000a900473ffffffffffffffffffffffffffffffffffffffff1673ffffffffffffffffffffffffffffffffffffffff1673ffffffffffffffffffffffffffffffffffffffff1681526020016001820160009054906101000a900473ffffffffffffffffffffffffffffffffffffffff1673ffffffffffffffffffffffffffffffffffffffff1673ffffffffffffffffffffffffffffffffffffffff16815260200160028201548152602001600382018054600181600116156101000203166002900480601f016020809104026020016040519081016040528092919081815260200182805460018160011615610100020316600290048015611dcb5780601f10611da057610100808354040283529160200191611dcb565b820191906000526020600020905b815481529060010190602001808311611dae57829003601f168201915b50505050508152602001600482018054600181600116156101000203166002900480601f016020809104026020016040519081016040528092919081815260200182805460018160011615610100020316600290048015611e6d5780601f10611e4257610100808354040283529160200191611e6d565b820191906000526020600020905b815481529060010190602001808311611e5057829003601f168201915b50505050508152602001600582018054600181600116156101000203166002900480601f016020809104026020016040519081016040528092919081815260200182805460018160011615610100020316600290048015611f0f5780601f10611ee457610100808354040283529160200191611f0f565b820191906000526020600020905b815481529060010190602001808311611ef257829003601f168201915b50505050508152602001600682018054600181600116156101000203166002900480601f016020809104026020016040519081016040528092919081815260200182805460018160011615610100020316600290048015611fb15780601f10611f8657610100808354040283529160200191611fb1565b820191906000526020600020905b815481529060010190602001808311611f9457829003601f168201915b50505050508152505081526020019060010190611c59565b505050509050919050565b60006020528060005260406000206000915090508060000160009054906101000a900473ffffffffffffffffffffffffffffffffffffffff1690806001015490806002018054600181600116156101000203166002900480601f0160208091040260200160405190810160405280929190818152602001828054600181600116156101000203166002900480156120ac5780601f10612081576101008083540402835291602001916120ac565b820191906000526020600020905b81548152906001019060200180831161208f57829003601f168201915b505050505090806003018054600181600116156101000203166002900480601f01602080910402602001604051908101604052809291908181526020018280546001816001161561010002031660029004801561214a5780601f1061211f5761010080835404028352916020019161214a565b820191906000526020600020905b81548152906001019060200180831161212d57829003601f168201915b505050505090806004018054600181600116156101000203166002900480601f0160208091040260200160405190810160405280929190818152602001828054600181600116156101000203166002900480156121e85780601f106121bd576101008083540402835291602001916121e8565b820191906000526020600020905b8154815290600101906020018083116121cb57829003601f168201915b5050505050905085565b60006298968042443360405160200161220d93929190612a35565b6040516020818303038152906040528051906020012060001c8161222d57fe5b06905090565b60046020528060005260406000206000915090505481565b828054600181600116156101000203166002900490600052602060002090601f016020900481019282601f1061228c57805160ff19168380011785556122ba565b828001600101855582156122ba579182015b828111156122b957825182559160200191906001019061229e565b5b5090506122c791906122cb565b5090565b6122ed91905b808211156122e95760008160009055506001016122d1565b5090565b90565b6000813590506122ff81612e63565b92915050565b600082601f83011261231657600080fd5b813561232961232482612c27565b612bfa565b9150808252602083016020830185838301111561234557600080fd5b612350838284612d94565b50505092915050565b600082601f83011261236a57600080fd5b813561237d61237882612c53565b612bfa565b9150808252602083016020830185838301111561239957600080fd5b6123a4838284612d94565b50505092915050565b6000813590506123bc81612e7a565b92915050565b6000602082840312156123d457600080fd5b60006123e2848285016122f0565b91505092915050565b600080604083850312156123fe57600080fd5b600061240c858286016122f0565b925050602061241d858286016122f0565b9150509250929050565b600080600080600080600060e0888a03121561244257600080fd5b60006124508a828b016122f0565b97505060206124618a828b016122f0565b96505060406124728a828b016123ad565b955050606088013567ffffffffffffffff81111561248f57600080fd5b61249b8a828b01612359565b945050608088013567ffffffffffffffff8111156124b857600080fd5b6124c48a828b01612359565b93505060a088013567ffffffffffffffff8111156124e157600080fd5b6124ed8a828b01612359565b92505060c088013567ffffffffffffffff81111561250a57600080fd5b6125168a828b01612359565b91505092959891949750929550565b6000806040838503121561253857600080fd5b6000612546858286016122f0565b9250506020612557858286016123ad565b9150509250929050565b600080600080600080600060e0888a03121561257c57600080fd5b600061258a8a828b016122f0565b975050602061259b8a828b016123ad565b96505060406125ac8a828b016122f0565b955050606088013567ffffffffffffffff8111156125c957600080fd5b6125d58a828b01612359565b945050608088013567ffffffffffffffff8111156125f257600080fd5b6125fe8a828b01612359565b93505060a088013567ffffffffffffffff81111561261b57600080fd5b6126278a828b01612359565b92505060c088013567ffffffffffffffff81111561264457600080fd5b6126508a828b01612359565b91505092959891949750929550565b60006020828403121561267157600080fd5b600082013567ffffffffffffffff81111561268b57600080fd5b61269784828501612305565b91505092915050565b60006126ac8383612938565b905092915050565b6126c56126c082612d4c565b612e0a565b82525050565b6126d481612d3a565b82525050565b6126e381612d3a565b82525050565b60006126f482612ca4565b6126fe8185612cd2565b93508360208202850161271085612c7f565b8060005b8581101561274c578484038952815161272d85826126a0565b945061273883612cc5565b925060208a01995050600181019050612714565b50829750879550505050505092915050565b61276781612d5e565b82525050565b600061277882612cba565b6127828185612d05565b9350612792818560208601612da3565b80840191505092915050565b60006127a982612caf565b6127b38185612ce3565b93506127c3818560208601612da3565b6127cc81612e38565b840191505092915050565b60006127e282612caf565b6127ec8185612cf4565b93506127fc818560208601612da3565b61280581612e38565b840191505092915050565b60008154600181166000811461282d576001811461285357612897565b607f600283041661283e8187612ce3565b955060ff198316865260208601935050612897565b600282046128618187612ce3565b955061286c85612c8f565b60005b8281101561288e5781548189015260018201915060208101905061286f565b80880195505050505b505092915050565b600060a0830160008084015490506128b681612dd6565b6128c360008701826126cb565b50600184015490506128d481612df0565b6128e160208701826129e9565b506002840185830360408701526128f88382612810565b9250506003840185830360608701526129118382612810565b92505060048401858303608087015261292a8382612810565b925050819250505092915050565b600060e08301600083015161295060008601826126cb565b50602083015161296360208601826126cb565b50604083015161297660408601826129e9565b506060830151848203606086015261298e828261279e565b915050608083015184820360808601526129a8828261279e565b91505060a083015184820360a08601526129c2828261279e565b91505060c083015184820360c08601526129dc828261279e565b9150508091505092915050565b6129f281612d8a565b82525050565b612a0181612d8a565b82525050565b612a18612a1382612d8a565b612e2e565b82525050565b6000612a2a828461276d565b915081905092915050565b6000612a418286612a07565b602082019150612a518285612a07565b602082019150612a6182846126b4565b601482019150819050949350505050565b6000602082019050612a8760008301846126da565b92915050565b600060e082019050612aa2600083018a6126da565b612aaf60208301896126da565b612abc60408301886129f8565b8181036060830152612ace81876127d7565b90508181036080830152612ae281866127d7565b905081810360a0830152612af681856127d7565b905081810360c0830152612b0a81846127d7565b905098975050505050505050565b600060a082019050612b2d60008301886126da565b612b3a60208301876129f8565b8181036040830152612b4c81866127d7565b90508181036060830152612b6081856127d7565b90508181036080830152612b7481846127d7565b90509695505050505050565b60006020820190508181036000830152612b9a81846126e9565b905092915050565b6000602082019050612bb7600083018461275e565b92915050565b60006020820190508181036000830152612bd7818461289f565b905092915050565b6000602082019050612bf460008301846129f8565b92915050565b6000604051905081810181811067ffffffffffffffff82111715612c1d57600080fd5b8060405250919050565b600067ffffffffffffffff821115612c3e57600080fd5b601f19601f8301169050602081019050919050565b600067ffffffffffffffff821115612c6a57600080fd5b601f19601f8301169050602081019050919050565b6000819050602082019050919050565b60008190508160005260206000209050919050565b600081519050919050565b600081519050919050565b600081519050919050565b6000602082019050919050565b600082825260208201905092915050565b600082825260208201905092915050565b600082825260208201905092915050565b600081905092915050565b600073ffffffffffffffffffffffffffffffffffffffff82169050919050565b6000819050919050565b6000612d4582612d6a565b9050919050565b6000612d5782612d6a565b9050919050565b60008115159050919050565b600073ffffffffffffffffffffffffffffffffffffffff82169050919050565b6000819050919050565b82818337600083830152505050565b60005b83811015612dc1578082015181840152602081019050612da6565b83811115612dd0576000848401525b50505050565b6000612de9612de483612e56565b612d10565b9050919050565b6000612e03612dfe83612e56565b612d30565b9050919050565b6000612e1582612e1c565b9050919050565b6000612e2782612e49565b9050919050565b6000819050919050565b6000601f19601f8301169050919050565b60008160601b9050919050565b60008160001c9050919050565b612e6c81612d3a565b8114612e7757600080fd5b50565b612e8381612d8a565b8114612e8e57600080fd5b5056fea26469706673582212201c813a6b313f569c6bcebcc2898ea2744208238a1d830bf9dcbe8bc2c379861764736f6c63430006020033",
  "source": "pragma solidity >=0.6.2;\r\npragma experimental ABIEncoderV2;\r\n\r\n\r\ncontract Driver{\r\n\t\r\n      struct Drivers{\r\n         address _driverAddress;\r\n         uint _distanceTravelled;\r\n        string location;\r\n        string _date;\r\n        string _time;\r\n   }\r\n\r\n   struct Show{\r\n            address _user;\r\n            address _driver;\r\n            uint _fare;\r\n            string _pickup;\r\n            string _drop;\r\n            string _carType;\r\n            string _date;\r\n   }\r\n   \r\n   mapping(address => Drivers) public driver;\r\n   mapping(address => bool) public acceptUser;\r\n   mapping(address => Drivers) public forUser;\r\n   mapping(address => uint256) public driverCode;\r\n   mapping(address => uint256) public userCode;\r\n   mapping(address => address) public userAddress;\r\n   mapping(address => bool) public startRide;\r\n   mapping(address => bool) public endRide;\r\n   mapping(address => bool) public startRideUser;\r\n   mapping(string => bool) public UserUI;\r\n   mapping(address => Show[]) public showUser;\r\n   mapping(address => Show[]) public showDriver;\r\n\r\n\r\n\r\n   event ForDriver(Drivers _driver);\r\n\r\n   uint256 public someCode;\r\n\r\n   uint256 public totalCount=0;\r\n\r\n   function Accept(address _driverAddress,uint _distanceTravelled,address _user,string memory _location,string memory _date,string memory _time,string memory userTime) public returns(uint256){\r\n               driver[_driverAddress] = Drivers(_driverAddress,_distanceTravelled,_location,_date,_time);\r\n               forUser[_user] = Drivers(_driverAddress,_distanceTravelled,_location,_date,_time);\r\n               acceptUser[_user] = true;\r\n               emit ForDriver(driver[_driverAddress]);\r\n               userAddress[_driverAddress] = _user;\r\n               someCode =  Passcode();\r\n               UserUI[userTime] = true;\r\n               totalCount++;\r\n               driverCode[_driverAddress] = someCode;\r\n               userCode[_user] = someCode;\r\n               return someCode;\r\n   }\r\n   \r\n\r\n   function Passcode() public view returns(uint256) {\r\n         return uint(keccak256(abi.encodePacked(\r\n            now, \r\n            block.difficulty, \r\n            msg.sender)\r\n        )) % 10000000;\r\n   }\r\n\r\n   \r\nfunction startRideForDriver(address _driver,address _user) public{\r\n                 endRide[_driver] = false;\r\n                 startRide[_driver] = true;\r\n                 startRideUser[_user] = true;\r\n\r\n   }\r\n\r\n   function endRideForDriver(address _driver,address _user,uint _fare,string memory _pickup,string memory _drop,string memory _carType,string memory _date) public{\r\n               endRide[_driver] = true;\r\n               acceptUser[_user] = false;\r\n               startRideUser[_user] = false;\r\n               //rideFinished[_time] = true;\r\n               showUser[_user].push(Show(_user,_driver,_fare,_pickup,_drop,_carType,_date));\r\n               showDriver[_driver].push(Show(_user,_driver,_fare,_pickup,_drop,_carType,_date));\r\n\r\n\r\n   }\r\n\r\n   function returnDriver(address _driver) public view returns(Show[] memory){\r\n\r\n        return showDriver[_driver];\r\n\r\n   }\r\n\r\n      function returnUser(address _user) public view returns(Show[] memory){\r\n\r\n        return showUser[_user];\r\n\r\n   }\r\n\r\n\r\n}",
  "sourcePath": "D:/ubun/LessBugs/contracts/Driver.sol",
  "compiler": {
    "name": "solc",
    "version": "0.6.2+commit.bacdbe57.Emscripten.clang"
  },
  "schemaVersion": "3.2.3",
  "updatedAt": "2020-09-09T09:41:17.115Z",
  "networkType": "ethereum",
  "devdoc": {
    "methods": {}
  },
  "userdoc": {
    "methods": {}
  }
}