{
  "contractName": "DriverReg",
  "abi": [
    {
      "anonymous": false,
      "inputs": [
        {
          "components": [
            {
              "internalType": "address",
              "name": "id",
              "type": "address"
            },
            {
              "internalType": "string",
              "name": "name",
              "type": "string"
            },
            {
              "internalType": "string",
              "name": "phn_num",
              "type": "string"
            },
            {
              "internalType": "string",
              "name": "aadhaar",
              "type": "string"
            },
            {
              "internalType": "string",
              "name": "usertype",
              "type": "string"
            },
            {
              "internalType": "string",
              "name": "license",
              "type": "string"
            },
            {
              "internalType": "string",
              "name": "rc_book",
              "type": "string"
            },
            {
              "internalType": "string",
              "name": "insurance",
              "type": "string"
            },
            {
              "internalType": "string",
              "name": "role",
              "type": "string"
            },
            {
              "internalType": "bool",
              "name": "set",
              "type": "bool"
            }
          ],
          "indexed": false,
          "internalType": "struct DriverReg.Driver",
          "name": "driver",
          "type": "tuple"
        }
      ],
      "name": "driverRegistered",
      "type": "event"
    },
    {
      "inputs": [
        {
          "internalType": "address",
          "name": "",
          "type": "address"
        }
      ],
      "name": "drivers",
      "outputs": [
        {
          "internalType": "address",
          "name": "id",
          "type": "address"
        },
        {
          "internalType": "string",
          "name": "name",
          "type": "string"
        },
        {
          "internalType": "string",
          "name": "phn_num",
          "type": "string"
        },
        {
          "internalType": "string",
          "name": "aadhaar",
          "type": "string"
        },
        {
          "internalType": "string",
          "name": "usertype",
          "type": "string"
        },
        {
          "internalType": "string",
          "name": "license",
          "type": "string"
        },
        {
          "internalType": "string",
          "name": "rc_book",
          "type": "string"
        },
        {
          "internalType": "string",
          "name": "insurance",
          "type": "string"
        },
        {
          "internalType": "string",
          "name": "role",
          "type": "string"
        },
        {
          "internalType": "bool",
          "name": "set",
          "type": "bool"
        }
      ],
      "stateMutability": "view",
      "type": "function",
      "constant": true
    },
    {
      "inputs": [
        {
          "internalType": "address",
          "name": "_id",
          "type": "address"
        },
        {
          "internalType": "string",
          "name": "_name",
          "type": "string"
        },
        {
          "internalType": "string",
          "name": "_aadhaar",
          "type": "string"
        },
        {
          "internalType": "string",
          "name": "_license",
          "type": "string"
        },
        {
          "internalType": "string",
          "name": "_rc_book",
          "type": "string"
        },
        {
          "internalType": "string",
          "name": "_insurance",
          "type": "string"
        },
        {
          "internalType": "string",
          "name": "_phn_num",
          "type": "string"
        }
      ],
      "name": "driver",
      "outputs": [
        {
          "internalType": "bool",
          "name": "",
          "type": "bool"
        }
      ],
      "stateMutability": "nonpayable",
      "type": "function"
    }
  ],
  "bytecode": "0x608060405234801561001057600080fd5b5061103f806100206000396000f3fe608060405234801561001057600080fd5b50600436106100365760003560e01c80634aa601861461003b578063af7b99ae14610074575b600080fd5b610055600480360361005091908101906109d3565b6100a4565b60405161006b9a99989796959493929190610d47565b60405180910390f35b61008e600480360361008991908101906109fc565b6105e5565b60405161009b9190610e1b565b60405180910390f35b60006020528060005260406000206000915090508060000160009054906101000a900473ffffffffffffffffffffffffffffffffffffffff1690806001018054600181600116156101000203166002900480601f0160208091040260200160405190810160405280929190818152602001828054600181600116156101000203166002900480156101765780601f1061014b57610100808354040283529160200191610176565b820191906000526020600020905b81548152906001019060200180831161015957829003601f168201915b505050505090806002018054600181600116156101000203166002900480601f0160208091040260200160405190810160405280929190818152602001828054600181600116156101000203166002900480156102145780601f106101e957610100808354040283529160200191610214565b820191906000526020600020905b8154815290600101906020018083116101f757829003601f168201915b505050505090806003018054600181600116156101000203166002900480601f0160208091040260200160405190810160405280929190818152602001828054600181600116156101000203166002900480156102b25780601f10610287576101008083540402835291602001916102b2565b820191906000526020600020905b81548152906001019060200180831161029557829003601f168201915b505050505090806004018054600181600116156101000203166002900480601f0160208091040260200160405190810160405280929190818152602001828054600181600116156101000203166002900480156103505780601f1061032557610100808354040283529160200191610350565b820191906000526020600020905b81548152906001019060200180831161033357829003601f168201915b505050505090806005018054600181600116156101000203166002900480601f0160208091040260200160405190810160405280929190818152602001828054600181600116156101000203166002900480156103ee5780601f106103c3576101008083540402835291602001916103ee565b820191906000526020600020905b8154815290600101906020018083116103d157829003601f168201915b505050505090806006018054600181600116156101000203166002900480601f01602080910402602001604051908101604052809291908181526020018280546001816001161561010002031660029004801561048c5780601f106104615761010080835404028352916020019161048c565b820191906000526020600020905b81548152906001019060200180831161046f57829003601f168201915b505050505090806007018054600181600116156101000203166002900480601f01602080910402602001604051908101604052809291908181526020018280546001816001161561010002031660029004801561052a5780601f106104ff5761010080835404028352916020019161052a565b820191906000526020600020905b81548152906001019060200180831161050d57829003601f168201915b505050505090806008018054600181600116156101000203166002900480601f0160208091040260200160405190810160405280929190818152602001828054600181600116156101000203166002900480156105c85780601f1061059d576101008083540402835291602001916105c8565b820191906000526020600020905b8154815290600101906020018083116105ab57829003601f168201915b5050505050908060090160009054906101000a900460ff1690508a565b60006040518061014001604052808973ffffffffffffffffffffffffffffffffffffffff1681526020018881526020018381526020018781526020016040518060400160405280600681526020017f447269766572000000000000000000000000000000000000000000000000000081525081526020018681526020018581526020018481526020016040518060400160405280600681526020017f44524956455200000000000000000000000000000000000000000000000000008152508152602001600115158152506000808a73ffffffffffffffffffffffffffffffffffffffff1673ffffffffffffffffffffffffffffffffffffffff16815260200190815260200160002060008201518160000160006101000a81548173ffffffffffffffffffffffffffffffffffffffff021916908373ffffffffffffffffffffffffffffffffffffffff16021790555060208201518160010190805190602001906107519291906108c5565b50604082015181600201908051906020019061076e9291906108c5565b50606082015181600301908051906020019061078b9291906108c5565b5060808201518160040190805190602001906107a89291906108c5565b5060a08201518160050190805190602001906107c59291906108c5565b5060c08201518160060190805190602001906107e29291906108c5565b5060e08201518160070190805190602001906107ff9291906108c5565b5061010082015181600801908051906020019061081d9291906108c5565b506101208201518160090160006101000a81548160ff0219169083151502179055509050507fe13de32b92dc33ae352a2715da948618336677f485fdb300480021328b7d64a26000808a73ffffffffffffffffffffffffffffffffffffffff1673ffffffffffffffffffffffffffffffffffffffff1681526020019081526020016000206040516108ae9190610e36565b60405180910390a160019050979650505050505050565b828054600181600116156101000203166002900490600052602060002090601f016020900481019282601f1061090657805160ff1916838001178555610934565b82800160010185558215610934579182015b82811115610933578251825591602001919060010190610918565b5b5090506109419190610945565b5090565b61096791905b8082111561096357600081600090555060010161094b565b5090565b90565b60008135905061097981610ff2565b92915050565b600082601f83011261099057600080fd5b81356109a361099e82610e85565b610e58565b915080825260208301602083018583830111156109bf57600080fd5b6109ca838284610f5e565b50505092915050565b6000602082840312156109e557600080fd5b60006109f38482850161096a565b91505092915050565b600080600080600080600060e0888a031215610a1757600080fd5b6000610a258a828b0161096a565b975050602088013567ffffffffffffffff811115610a4257600080fd5b610a4e8a828b0161097f565b965050604088013567ffffffffffffffff811115610a6b57600080fd5b610a778a828b0161097f565b955050606088013567ffffffffffffffff811115610a9457600080fd5b610aa08a828b0161097f565b945050608088013567ffffffffffffffff811115610abd57600080fd5b610ac98a828b0161097f565b93505060a088013567ffffffffffffffff811115610ae657600080fd5b610af28a828b0161097f565b92505060c088013567ffffffffffffffff811115610b0f57600080fd5b610b1b8a828b0161097f565b91505092959891949750929550565b610b3381610f20565b82525050565b610b4281610f20565b82525050565b610b5181610f32565b82525050565b610b6081610f32565b82525050565b6000610b7182610ec6565b610b7b8185610ee2565b9350610b8b818560208601610f6d565b610b9481610fd4565b840191505092915050565b600081546001811660008114610bbc5760018114610be257610c26565b607f6002830416610bcd8187610ed1565b955060ff198316865260208601935050610c26565b60028204610bf08187610ed1565b9550610bfb85610eb1565b60005b82811015610c1d57815481890152600182019150602081019050610bfe565b80880195505050505b505092915050565b600061014083016000808401549050610c4681610fa0565b610c536000870182610b2a565b50600184018583036020870152610c6a8382610b9f565b925050600284018583036040870152610c838382610b9f565b925050600384018583036060870152610c9c8382610b9f565b925050600484018583036080870152610cb58382610b9f565b9250506005840185830360a0870152610cce8382610b9f565b9250506006840185830360c0870152610ce78382610b9f565b9250506007840185830360e0870152610d008382610b9f565b92505060088401858303610100870152610d1a8382610b9f565b92505060098401549050610d2d81610fba565b610d3b610120870182610b48565b50819250505092915050565b600061014082019050610d5d600083018d610b39565b8181036020830152610d6f818c610b66565b90508181036040830152610d83818b610b66565b90508181036060830152610d97818a610b66565b90508181036080830152610dab8189610b66565b905081810360a0830152610dbf8188610b66565b905081810360c0830152610dd38187610b66565b905081810360e0830152610de78186610b66565b9050818103610100830152610dfc8185610b66565b9050610e0c610120830184610b57565b9b9a5050505050505050505050565b6000602082019050610e306000830184610b57565b92915050565b60006020820190508181036000830152610e508184610c2e565b905092915050565b6000604051905081810181811067ffffffffffffffff82111715610e7b57600080fd5b8060405250919050565b600067ffffffffffffffff821115610e9c57600080fd5b601f19601f8301169050602081019050919050565b60008190508160005260206000209050919050565b600081519050919050565b600082825260208201905092915050565b600082825260208201905092915050565b600073ffffffffffffffffffffffffffffffffffffffff82169050919050565b600060ff82169050919050565b6000610f2b82610f3e565b9050919050565b60008115159050919050565b600073ffffffffffffffffffffffffffffffffffffffff82169050919050565b82818337600083830152505050565b60005b83811015610f8b578082015181840152602081019050610f70565b83811115610f9a576000848401525b50505050565b6000610fb3610fae83610fe5565b610ef3565b9050919050565b6000610fcd610fc883610fe5565b610f13565b9050919050565b6000601f19601f8301169050919050565b60008160001c9050919050565b610ffb81610f20565b811461100657600080fd5b5056fea2646970667358221220762492395328d2008a2c70a9e5997b7e5f69e54ffe32601539922adc9ac4398e64736f6c63430006020033",
  "source": "pragma solidity >= 0.6.2;\r\npragma experimental ABIEncoderV2;\r\n\r\ncontract DriverReg{\r\n    struct Driver {\r\n    address id;\r\n    string name;\r\n    string phn_num;\r\n    string aadhaar;\r\n    string usertype;\r\n    string license;\r\n    string rc_book;\r\n    string insurance;\r\n    string role;\r\n    bool set;\r\n  }\r\n  mapping (address => Driver) public drivers;\r\n  event driverRegistered(Driver driver);\r\n\r\n  \r\n  function driver(address _id,string memory _name,string memory _aadhaar,string memory _license,string memory _rc_book,string memory _insurance,string memory _phn_num) public returns(bool) {\r\n        drivers[_id] = Driver({\r\n        id: _id,\r\n        name: _name,\r\n        aadhaar:_aadhaar,\r\n        usertype: \"Driver\",\r\n        license: _license,\r\n        rc_book: _rc_book,\r\n        insurance: _insurance,\r\n        role:\"DRIVER\",\r\n        phn_num: _phn_num,\r\n        set: true\r\n    });\r\n    emit driverRegistered(drivers[_id]);\r\n    return true;\r\n  }\r\n} ",
  "sourcePath": "D:/ubun/LessBugs/contracts/DriverReg.sol",
  "compiler": {
    "name": "solc",
    "version": "0.6.2+commit.bacdbe57.Emscripten.clang"
  },
  "schemaVersion": "3.2.3",
  "updatedAt": "2020-09-09T09:41:17.127Z",
  "networkType": "ethereum",
  "devdoc": {
    "methods": {}
  },
  "userdoc": {
    "methods": {}
  }
}