{
  "contractName": "ecoin",
  "abi": [
    {
      "inputs": [
        {
          "internalType": "address",
          "name": "",
          "type": "address"
        }
      ],
      "name": "driverRewards",
      "outputs": [
        {
          "internalType": "uint256",
          "name": "",
          "type": "uint256"
        }
      ],
      "stateMutability": "view",
      "type": "function",
      "constant": true
    },
    {
      "inputs": [
        {
          "internalType": "address",
          "name": "",
          "type": "address"
        }
      ],
      "name": "driverpoint",
      "outputs": [
        {
          "internalType": "uint256",
          "name": "",
          "type": "uint256"
        }
      ],
      "stateMutability": "view",
      "type": "function",
      "constant": true
    },
    {
      "inputs": [
        {
          "internalType": "address",
          "name": "",
          "type": "address"
        }
      ],
      "name": "freeride1",
      "outputs": [
        {
          "internalType": "uint256",
          "name": "",
          "type": "uint256"
        }
      ],
      "stateMutability": "view",
      "type": "function",
      "constant": true
    },
    {
      "inputs": [
        {
          "internalType": "address",
          "name": "",
          "type": "address"
        }
      ],
      "name": "userpoint",
      "outputs": [
        {
          "internalType": "uint256",
          "name": "",
          "type": "uint256"
        }
      ],
      "stateMutability": "view",
      "type": "function",
      "constant": true
    },
    {
      "inputs": [
        {
          "internalType": "address",
          "name": "reciever",
          "type": "address"
        },
        {
          "internalType": "uint256",
          "name": "km",
          "type": "uint256"
        },
        {
          "internalType": "uint256",
          "name": "rating",
          "type": "uint256"
        },
        {
          "internalType": "uint256",
          "name": "points",
          "type": "uint256"
        }
      ],
      "name": "driver",
      "outputs": [
        {
          "internalType": "uint256",
          "name": "",
          "type": "uint256"
        }
      ],
      "stateMutability": "nonpayable",
      "type": "function"
    },
    {
      "inputs": [
        {
          "internalType": "address",
          "name": "reciever1",
          "type": "address"
        },
        {
          "internalType": "uint256",
          "name": "km1",
          "type": "uint256"
        },
        {
          "internalType": "uint256",
          "name": "rating1",
          "type": "uint256"
        },
        {
          "internalType": "uint256",
          "name": "points",
          "type": "uint256"
        }
      ],
      "name": "rider",
      "outputs": [
        {
          "internalType": "uint256",
          "name": "",
          "type": "uint256"
        }
      ],
      "stateMutability": "nonpayable",
      "type": "function"
    }
  ],
  "bytecode": "0x608060405260006004556000600555600060065534801561001f57600080fd5b50610de18061002f6000396000f3fe608060405234801561001057600080fd5b50600436106100625760003560e01c80632229a199146100675780634dfe3351146100bf578063ab405f6114610135578063d0f5c1e41461018d578063e77a2da9146101e5578063e84ece951461025b575b600080fd5b6100a96004803603602081101561007d57600080fd5b81019080803573ffffffffffffffffffffffffffffffffffffffff1690602001909291905050506102b3565b6040518082815260200191505060405180910390f35b61011f600480360360808110156100d557600080fd5b81019080803573ffffffffffffffffffffffffffffffffffffffff1690602001909291908035906020019092919080359060200190929190803590602001909291905050506102cb565b6040518082815260200191505060405180910390f35b6101776004803603602081101561014b57600080fd5b81019080803573ffffffffffffffffffffffffffffffffffffffff169060200190929190505050610771565b6040518082815260200191505060405180910390f35b6101cf600480360360208110156101a357600080fd5b81019080803573ffffffffffffffffffffffffffffffffffffffff169060200190929190505050610789565b6040518082815260200191505060405180910390f35b610245600480360360808110156101fb57600080fd5b81019080803573ffffffffffffffffffffffffffffffffffffffff1690602001909291908035906020019092919080359060200190929190803590602001909291905050506107a1565b6040518082815260200191505060405180910390f35b61029d6004803603602081101561027157600080fd5b81019080803573ffffffffffffffffffffffffffffffffffffffff169060200190929190505050610d93565b6040518082815260200191505060405180910390f35b60016020528060005260406000206000915090505481565b60008060009050600084111561076557600585116103b55760068410610359576040517f08c379a00000000000000000000000000000000000000000000000000000000081526004018080602001828103825260058152602001807f6572726f7200000000000000000000000000000000000000000000000000000081525060200191505060405180910390fd5b60038414156103785760016006600082825401925050819055506103b4565b60048414156103975760026006600082825401925050819055506103b3565b60058414156103b25760036006600082825401925050819055505b5b5b5b6005851180156103c65750600f8511155b1561049d5760068410610441576040517f08c379a00000000000000000000000000000000000000000000000000000000081526004018080602001828103825260058152602001807f6572726f7200000000000000000000000000000000000000000000000000000081525060200191505060405180910390fd5b600384141561046057600260066000828254019250508190555061049c565b600484141561047f57600360066000828254019250508190555061049b565b600584141561049a5760046006600082825401925050819055505b5b5b5b600f851180156104ae575060328511155b156105855760068410610529576040517f08c379a00000000000000000000000000000000000000000000000000000000081526004018080602001828103825260058152602001807f6572726f7200000000000000000000000000000000000000000000000000000081525060200191505060405180910390fd5b6003841415610548576003600660008282540192505081905550610584565b6004841415610567576004600660008282540192505081905550610583565b60058414156105825760056006600082825401925050819055505b5b5b5b603285118015610596575060648511155b156106235760068410610611576040517f08c379a00000000000000000000000000000000000000000000000000000000081526004018080602001828103825260058152602001807f6572726f7200000000000000000000000000000000000000000000000000000081525060200191505060405180910390fd5b60b46006600082825401925050819055505b606485111561071957600684106106a2576040517f08c379a00000000000000000000000000000000000000000000000000000000081526004018080602001828103825260058152602001807f6572726f7200000000000000000000000000000000000000000000000000000081525060200191505060405180910390fd5b60648511610718576040517f08c379a000000000000000000000000000000000000000000000000000000000815260040180806020018281038252601e8152602001807f6f7572206578656375697476652077696c6c20636f6e7461637420796f75000081525060200191505060405180910390fd5b5b6006548301905080600260008873ffffffffffffffffffffffffffffffffffffffff1673ffffffffffffffffffffffffffffffffffffffff168152602001908152602001600020819055505b80915050949350505050565b60026020528060005260406000206000915090505481565b60006020528060005260406000206000915090505481565b600080831115610d4457600584116108855760068310610829576040517f08c379a00000000000000000000000000000000000000000000000000000000081526004018080602001828103825260058152602001807f6572726f7200000000000000000000000000000000000000000000000000000081525060200191505060405180910390fd5b6003831415610848576001600460008282540192505081905550610884565b6004831415610867576002600460008282540192505081905550610883565b60058314156108825760036004600082825401925050819055505b5b5b5b6005841180156108965750600f8411155b1561096c5760068310610911576040517f08c379a00000000000000000000000000000000000000000000000000000000081526004018080602001828103825260058152602001807f6572726f7200000000000000000000000000000000000000000000000000000081525060200191505060405180910390fd5b600383141561093057600260046000828254019250508190555061096b565b600483141561094f57600360046000828254019250508190555061096a565b600583141561096957600480600082825401925050819055505b5b5b5b600f8411801561097d575060328411155b15610a5357600683106109f8576040517f08c379a00000000000000000000000000000000000000000000000000000000081526004018080602001828103825260058152602001807f6572726f7200000000000000000000000000000000000000000000000000000081525060200191505060405180910390fd5b6003831415610a17576003600460008282540192505081905550610a52565b6004831415610a355760048060008282540192505081905550610a51565b6005831415610a505760056004600082825401925050819055505b5b5b5b6032841115610ae45760068310610ad2576040517f08c379a00000000000000000000000000000000000000000000000000000000081526004018080602001828103825260058152602001807f6572726f7200000000000000000000000000000000000000000000000000000081525060200191505060405180910390fd5b60b46004600082825401925050819055505b6064841115610bda5760068310610b63576040517f08c379a00000000000000000000000000000000000000000000000000000000081526004018080602001828103825260058152602001807f6572726f7200000000000000000000000000000000000000000000000000000081525060200191505060405180910390fd5b60648411610bd9576040517f08c379a000000000000000000000000000000000000000000000000000000000815260040180806020018281038252601e8152602001807f6f7572206578656375697476652077696c6c20636f6e7461637420796f75000081525060200191505060405180910390fd5b5b600454820191506000821115610d435760648210158015610bfc575060fa8211155b15610c615760016005600082825401925050819055506005546000808773ffffffffffffffffffffffffffffffffffffffff1673ffffffffffffffffffffffffffffffffffffffff168152602001908152602001600020600082825401925050819055505b60fa8210158015610c7457506101f48211155b15610cd95760026005600082825401925050819055506005546000808773ffffffffffffffffffffffffffffffffffffffff1673ffffffffffffffffffffffffffffffffffffffff168152602001908152602001600020600082825401925050819055505b6103e88210610d425760036005600082825401925050819055506005546000808773ffffffffffffffffffffffffffffffffffffffff1673ffffffffffffffffffffffffffffffffffffffff168152602001908152602001600020600082825401925050819055505b5b5b81600160008773ffffffffffffffffffffffffffffffffffffffff1673ffffffffffffffffffffffffffffffffffffffff16815260200190815260200160002081905550819050949350505050565b6003602052806000526040600020600091509050548156fea2646970667358221220190ffd3b32efe8a32b625df38c1f5f2aac8074f16efbddc827d497629bda305f64736f6c63430006020033",
  "source": "pragma solidity >=0.6.2;\r\ncontract ecoin{\r\n    // address public minter;\r\n    //mapping (address => uint256) public token;\r\n\r\n    mapping(address => uint256) public freeride1;\r\n    mapping(address => uint256) public userpoint;\r\n    mapping(address => uint256) public driverpoint;\r\n    mapping(address => uint256) public driverRewards;\r\n\r\n\r\n    uint256 balances1 = 0;\r\n    uint256 freeride = 0;\r\n    uint256 balances = 0;\r\n      \r\n    function driver (address reciever, uint256 km, uint256 rating,uint256 points) public returns(uint256){\r\n\r\n        uint256 p = 0;\r\n        \r\n       if (rating > 0){\r\n           if(km <= 5){ \r\n               require(rating < 6,\"error\");\r\n               if(rating == 3){\r\n                   balances += 1;\r\n               }\r\n               else if(rating == 4){\r\n                   balances += 2;\r\n               }\r\n               else if (rating == 5){\r\n                   balances += 3;\r\n               }\r\n              \r\n           }\r\n           if(km > 5 && km <= 15){ \r\n           require(rating < 6,\"error\");\r\n               if(rating == 3){\r\n                   balances += 2;\r\n               }\r\n               else if(rating == 4){\r\n                   balances += 3;\r\n               }\r\n               else if (rating == 5){\r\n                   balances += 4;\r\n               }\r\n             \r\n           }\r\n            if (km > 15 && km <= 50){ \r\n            require(rating < 6,\"error\");\r\n                  if(rating == 3){\r\n                   balances += 3;\r\n               }\r\n               else if(rating == 4){\r\n                   balances += 4;\r\n               }\r\n               else if (rating == 5){\r\n                   balances += 5;\r\n               }\r\n              \r\n            }\r\n           if (km > 50 && km <= 100){\r\n               \r\n               require(rating < 6,\"error\");\r\n               balances += 180;\r\n           }\r\n           if (km > 100){\r\n               require(rating < 6,\"error\");\r\n               require(km > 100,\"our execuitve will contact you\");\r\n           }\r\n           p = points + balances;\r\n           driverpoint[reciever] = p;\r\n       }\r\n       \r\n\r\n        return p;\r\n       \r\n        \r\n    }\r\n\r\n    \r\n    function rider (address reciever1, uint256 km1, uint256 rating1,uint256 points) public returns(uint256){\r\n          \r\n        \r\n       if (rating1 > 0){\r\n           if(km1 <= 5){ \r\n           require(rating1 < 6,\"error\");\r\n               if(rating1 == 3){\r\n                   balances1 += 1;\r\n               }\r\n               else if(rating1 == 4){\r\n                   balances1 += 2;\r\n               }\r\n               else if (rating1 == 5){\r\n                   balances1 += 3;\r\n               }\r\n              \r\n           }\r\n           if(km1 > 5 && km1 <= 15){ \r\n           require(rating1 < 6,\"error\");\r\n               if(rating1 == 3){\r\n                   balances1 += 2;\r\n               }\r\n               else if(rating1 == 4){\r\n                   balances1 += 3;\r\n               }\r\n               else if (rating1 == 5){\r\n                   balances1 += 4;\r\n               }\r\n             \r\n           }\r\n            if (km1 > 15 && km1 <= 50){ \r\n            require(rating1 < 6,\"error\");\r\n                  if(rating1 == 3){\r\n                   balances1 += 3;\r\n               }\r\n               else if(rating1 == 4){\r\n                   balances1 += 4;\r\n               }\r\n               else if (rating1 == 5){\r\n                   balances1 += 5;\r\n               }\r\n              \r\n            }\r\n           if (km1 > 50){\r\n               require(rating1 < 6,\"error\");\r\n               \r\n               balances1 += 180;\r\n           }\r\n             if (km1 > 100){\r\n               require(rating1 < 6,\"error\");\r\n               require(km1 > 100,\"our execuitve will contact you\");\r\n           }\r\n           points = points + balances1;\r\n\r\n           if (points > 0){\r\n            if(points >= 100 && points <= 250){\r\n                freeride += 1;\r\n                freeride1[reciever1] += freeride;\r\n            }\r\n            if(points >= 250 && points <= 500) {\r\n                freeride += 2;\r\n                freeride1[reciever1] += freeride;\r\n            } \r\n            if(points >= 1000) {\r\n                freeride += 3;\r\n                freeride1[reciever1] += freeride;\r\n            }\r\n                \r\n            }\r\n\r\n       }\r\n        userpoint[reciever1] = points;\r\n        return points;\r\n        \r\n    }\r\n    \r\n    \r\n}",
  "sourcePath": "D:/ubun/LessBugs/contracts/ecoin.sol",
  "compiler": {
    "name": "solc",
    "version": "0.6.2+commit.bacdbe57.Emscripten.clang"
  },
  "schemaVersion": "3.2.3",
  "updatedAt": "2020-09-09T09:41:17.136Z",
  "networkType": "ethereum",
  "devdoc": {
    "methods": {}
  },
  "userdoc": {
    "methods": {}
  }
}