{
  "contractName": "RiderReg",
  "abi": [
    {
      "anonymous": false,
      "inputs": [
        {
          "components": [
            {
              "internalType": "address",
              "name": "id",
              "type": "address"
            },
            {
              "internalType": "string",
              "name": "name",
              "type": "string"
            },
            {
              "internalType": "string",
              "name": "phn_num",
              "type": "string"
            },
            {
              "internalType": "string",
              "name": "aadhaar",
              "type": "string"
            },
            {
              "internalType": "string",
              "name": "usertype",
              "type": "string"
            },
            {
              "internalType": "string",
              "name": "role",
              "type": "string"
            },
            {
              "internalType": "bool",
              "name": "set",
              "type": "bool"
            }
          ],
          "indexed": false,
          "internalType": "struct RiderReg.User",
          "name": "user",
          "type": "tuple"
        }
      ],
      "name": "userRegistered",
      "type": "event"
    },
    {
      "inputs": [
        {
          "internalType": "address",
          "name": "",
          "type": "address"
        }
      ],
      "name": "user",
      "outputs": [
        {
          "internalType": "address",
          "name": "id",
          "type": "address"
        },
        {
          "internalType": "string",
          "name": "name",
          "type": "string"
        },
        {
          "internalType": "string",
          "name": "phn_num",
          "type": "string"
        },
        {
          "internalType": "string",
          "name": "aadhaar",
          "type": "string"
        },
        {
          "internalType": "string",
          "name": "usertype",
          "type": "string"
        },
        {
          "internalType": "string",
          "name": "role",
          "type": "string"
        },
        {
          "internalType": "bool",
          "name": "set",
          "type": "bool"
        }
      ],
      "stateMutability": "view",
      "type": "function",
      "constant": true
    },
    {
      "inputs": [
        {
          "internalType": "address",
          "name": "_id",
          "type": "address"
        },
        {
          "internalType": "string",
          "name": "_name",
          "type": "string"
        },
        {
          "internalType": "string",
          "name": "_aadhaar",
          "type": "string"
        },
        {
          "internalType": "string",
          "name": "_phn_num",
          "type": "string"
        }
      ],
      "name": "rider",
      "outputs": [
        {
          "internalType": "bool",
          "name": "",
          "type": "bool"
        }
      ],
      "stateMutability": "nonpayable",
      "type": "function"
    }
  ],
  "bytecode": "0x608060405234801561001057600080fd5b50610ce0806100206000396000f3fe608060405234801561001057600080fd5b50600436106100365760003560e01c806381e7e20e1461003b578063a2437f1414610071575b600080fd5b61005560048036036100509190810190610787565b6100a1565b6040516100689796959493929190610a2a565b60405180910390f35b61008b600480360361008691908101906107b0565b610408565b6040516100989190610abc565b60405180910390f35b60006020528060005260406000206000915090508060000160009054906101000a900473ffffffffffffffffffffffffffffffffffffffff1690806001018054600181600116156101000203166002900480601f0160208091040260200160405190810160405280929190818152602001828054600181600116156101000203166002900480156101735780601f1061014857610100808354040283529160200191610173565b820191906000526020600020905b81548152906001019060200180831161015657829003601f168201915b505050505090806002018054600181600116156101000203166002900480601f0160208091040260200160405190810160405280929190818152602001828054600181600116156101000203166002900480156102115780601f106101e657610100808354040283529160200191610211565b820191906000526020600020905b8154815290600101906020018083116101f457829003601f168201915b505050505090806003018054600181600116156101000203166002900480601f0160208091040260200160405190810160405280929190818152602001828054600181600116156101000203166002900480156102af5780601f10610284576101008083540402835291602001916102af565b820191906000526020600020905b81548152906001019060200180831161029257829003601f168201915b505050505090806004018054600181600116156101000203166002900480601f01602080910402602001604051908101604052809291908181526020018280546001816001161561010002031660029004801561034d5780601f106103225761010080835404028352916020019161034d565b820191906000526020600020905b81548152906001019060200180831161033057829003601f168201915b505050505090806005018054600181600116156101000203166002900480601f0160208091040260200160405190810160405280929190818152602001828054600181600116156101000203166002900480156103eb5780601f106103c0576101008083540402835291602001916103eb565b820191906000526020600020905b8154815290600101906020018083116103ce57829003601f168201915b5050505050908060060160009054906101000a900460ff16905087565b60006040518060e001604052808673ffffffffffffffffffffffffffffffffffffffff1681526020018581526020018381526020018481526020016040518060400160405280600581526020017f526964657200000000000000000000000000000000000000000000000000000081525081526020016040518060400160405280600481526020017f55534552000000000000000000000000000000000000000000000000000000008152508152602001600115158152506000808773ffffffffffffffffffffffffffffffffffffffff1673ffffffffffffffffffffffffffffffffffffffff16815260200190815260200160002060008201518160000160006101000a81548173ffffffffffffffffffffffffffffffffffffffff021916908373ffffffffffffffffffffffffffffffffffffffff1602179055506020820151816001019080519060200190610561929190610679565b50604082015181600201908051906020019061057e929190610679565b50606082015181600301908051906020019061059b929190610679565b5060808201518160040190805190602001906105b8929190610679565b5060a08201518160050190805190602001906105d5929190610679565b5060c08201518160060160006101000a81548160ff0219169083151502179055509050507f8c2a8594354fecc0b8af83fffda0b385fba761ba74563c8436ec6f3d378c12c46000808773ffffffffffffffffffffffffffffffffffffffff1673ffffffffffffffffffffffffffffffffffffffff1681526020019081526020016000206040516106659190610ad7565b60405180910390a160019050949350505050565b828054600181600116156101000203166002900490600052602060002090601f016020900481019282601f106106ba57805160ff19168380011785556106e8565b828001600101855582156106e8579182015b828111156106e75782518255916020019190600101906106cc565b5b5090506106f591906106f9565b5090565b61071b91905b808211156107175760008160009055506001016106ff565b5090565b90565b60008135905061072d81610c93565b92915050565b600082601f83011261074457600080fd5b813561075761075282610b26565b610af9565b9150808252602083016020830185838301111561077357600080fd5b61077e838284610bff565b50505092915050565b60006020828403121561079957600080fd5b60006107a78482850161071e565b91505092915050565b600080600080608085870312156107c657600080fd5b60006107d48782880161071e565b945050602085013567ffffffffffffffff8111156107f157600080fd5b6107fd87828801610733565b935050604085013567ffffffffffffffff81111561081a57600080fd5b61082687828801610733565b925050606085013567ffffffffffffffff81111561084357600080fd5b61084f87828801610733565b91505092959194509250565b61086481610bc1565b82525050565b61087381610bc1565b82525050565b61088281610bd3565b82525050565b61089181610bd3565b82525050565b60006108a282610b67565b6108ac8185610b83565b93506108bc818560208601610c0e565b6108c581610c75565b840191505092915050565b6000815460018116600081146108ed576001811461091357610957565b607f60028304166108fe8187610b72565b955060ff198316865260208601935050610957565b600282046109218187610b72565b955061092c85610b52565b60005b8281101561094e5781548189015260018201915060208101905061092f565b80880195505050505b505092915050565b600060e08301600080840154905061097681610c41565b610983600087018261085b565b5060018401858303602087015261099a83826108d0565b9250506002840185830360408701526109b383826108d0565b9250506003840185830360608701526109cc83826108d0565b9250506004840185830360808701526109e583826108d0565b9250506005840185830360a08701526109fe83826108d0565b92505060068401549050610a1181610c5b565b610a1e60c0870182610879565b50819250505092915050565b600060e082019050610a3f600083018a61086a565b8181036020830152610a518189610897565b90508181036040830152610a658188610897565b90508181036060830152610a798187610897565b90508181036080830152610a8d8186610897565b905081810360a0830152610aa18185610897565b9050610ab060c0830184610888565b98975050505050505050565b6000602082019050610ad16000830184610888565b92915050565b60006020820190508181036000830152610af1818461095f565b905092915050565b6000604051905081810181811067ffffffffffffffff82111715610b1c57600080fd5b8060405250919050565b600067ffffffffffffffff821115610b3d57600080fd5b601f19601f8301169050602081019050919050565b60008190508160005260206000209050919050565b600081519050919050565b600082825260208201905092915050565b600082825260208201905092915050565b600073ffffffffffffffffffffffffffffffffffffffff82169050919050565b600060ff82169050919050565b6000610bcc82610bdf565b9050919050565b60008115159050919050565b600073ffffffffffffffffffffffffffffffffffffffff82169050919050565b82818337600083830152505050565b60005b83811015610c2c578082015181840152602081019050610c11565b83811115610c3b576000848401525b50505050565b6000610c54610c4f83610c86565b610b94565b9050919050565b6000610c6e610c6983610c86565b610bb4565b9050919050565b6000601f19601f8301169050919050565b60008160001c9050919050565b610c9c81610bc1565b8114610ca757600080fd5b5056fea26469706673582212205bdc8c7d2c96a777a5fb2650953b425d5d0ea6775c3603dd6a0a862f9dbce7fd64736f6c63430006020033",
  "source": "pragma solidity >= 0.6.2;\r\npragma experimental ABIEncoderV2;\r\n\r\ncontract RiderReg{\r\n    struct User {\r\n    address id;\r\n    string name;\r\n    string phn_num;\r\n    string aadhaar;\r\n    string usertype;\r\n    string role;\r\n    bool set;\r\n  }\r\n  mapping (address => User) public user;\r\n  event userRegistered(User user);\r\n  \r\n  function rider(address _id,string memory _name,string memory _aadhaar,string memory _phn_num) public returns(bool) {\r\n        user[_id] = User({\r\n        id: _id,\r\n        name: _name,\r\n        aadhaar:_aadhaar,\r\n        usertype: \"Rider\",\r\n        phn_num: _phn_num,\r\n        role:\"USER\",\r\n        set: true\r\n    });\r\n    emit userRegistered(user[_id]);\r\n    return true;\r\n  }\r\n  } ",
  "sourcePath": "D:/ubun/LessBugs/contracts/RiderReg.sol",
  "compiler": {
    "name": "solc",
    "version": "0.6.2+commit.bacdbe57.Emscripten.clang"
  },
  "schemaVersion": "3.2.3",
  "updatedAt": "2020-09-09T09:41:17.130Z",
  "networkType": "ethereum",
  "devdoc": {
    "methods": {}
  },
  "userdoc": {
    "methods": {}
  }
}