{
  "contractName": "User",
  "abi": [
    {
      "anonymous": false,
      "inputs": [
        {
          "components": [
            {
              "internalType": "address",
              "name": "_userAddress",
              "type": "address"
            },
            {
              "internalType": "uint256",
              "name": "_distanceTravelled",
              "type": "uint256"
            },
            {
              "internalType": "string",
              "name": "_pickUp",
              "type": "string"
            },
            {
              "internalType": "string",
              "name": "_drop",
              "type": "string"
            },
            {
              "internalType": "string",
              "name": "_carType",
              "type": "string"
            },
            {
              "internalType": "uint256",
              "name": "_fare",
              "type": "uint256"
            },
            {
              "internalType": "string",
              "name": "_date",
              "type": "string"
            },
            {
              "internalType": "string",
              "name": "_time",
              "type": "string"
            }
          ],
          "indexed": false,
          "internalType": "struct User.Users",
          "name": "_users",
          "type": "tuple"
        }
      ],
      "name": "ForUser",
      "type": "event"
    },
    {
      "inputs": [
        {
          "internalType": "address",
          "name": "",
          "type": "address"
        }
      ],
      "name": "acceptUser",
      "outputs": [
        {
          "internalType": "bool",
          "name": "",
          "type": "bool"
        }
      ],
      "stateMutability": "view",
      "type": "function",
      "constant": true
    },
    {
      "inputs": [
        {
          "internalType": "address",
          "name": "",
          "type": "address"
        }
      ],
      "name": "endRide",
      "outputs": [
        {
          "internalType": "bool",
          "name": "",
          "type": "bool"
        }
      ],
      "stateMutability": "view",
      "type": "function",
      "constant": true
    },
    {
      "inputs": [
        {
          "internalType": "address",
          "name": "",
          "type": "address"
        }
      ],
      "name": "startRide",
      "outputs": [
        {
          "internalType": "bool",
          "name": "",
          "type": "bool"
        }
      ],
      "stateMutability": "view",
      "type": "function",
      "constant": true
    },
    {
      "inputs": [],
      "name": "totCount",
      "outputs": [
        {
          "internalType": "uint256",
          "name": "",
          "type": "uint256"
        }
      ],
      "stateMutability": "view",
      "type": "function",
      "constant": true
    },
    {
      "inputs": [
        {
          "internalType": "uint256",
          "name": "",
          "type": "uint256"
        }
      ],
      "name": "totalUser",
      "outputs": [
        {
          "internalType": "address",
          "name": "_userAddress",
          "type": "address"
        },
        {
          "internalType": "uint256",
          "name": "_distanceTravelled",
          "type": "uint256"
        },
        {
          "internalType": "string",
          "name": "_pickUp",
          "type": "string"
        },
        {
          "internalType": "string",
          "name": "_drop",
          "type": "string"
        },
        {
          "internalType": "string",
          "name": "_carType",
          "type": "string"
        },
        {
          "internalType": "uint256",
          "name": "_fare",
          "type": "uint256"
        },
        {
          "internalType": "string",
          "name": "_date",
          "type": "string"
        },
        {
          "internalType": "string",
          "name": "_time",
          "type": "string"
        }
      ],
      "stateMutability": "view",
      "type": "function",
      "constant": true
    },
    {
      "inputs": [
        {
          "internalType": "address",
          "name": "",
          "type": "address"
        }
      ],
      "name": "user",
      "outputs": [
        {
          "internalType": "address",
          "name": "_userAddress",
          "type": "address"
        },
        {
          "internalType": "uint256",
          "name": "_distanceTravelled",
          "type": "uint256"
        },
        {
          "internalType": "string",
          "name": "_pickUp",
          "type": "string"
        },
        {
          "internalType": "string",
          "name": "_drop",
          "type": "string"
        },
        {
          "internalType": "string",
          "name": "_carType",
          "type": "string"
        },
        {
          "internalType": "uint256",
          "name": "_fare",
          "type": "uint256"
        },
        {
          "internalType": "string",
          "name": "_date",
          "type": "string"
        },
        {
          "internalType": "string",
          "name": "_time",
          "type": "string"
        }
      ],
      "stateMutability": "view",
      "type": "function",
      "constant": true
    },
    {
      "inputs": [
        {
          "internalType": "address",
          "name": "_user",
          "type": "address"
        },
        {
          "internalType": "uint256",
          "name": "_distanceTravelled",
          "type": "uint256"
        },
        {
          "internalType": "string",
          "name": "_pickUp",
          "type": "string"
        },
        {
          "internalType": "string",
          "name": "_drop",
          "type": "string"
        },
        {
          "internalType": "string",
          "name": "_carType",
          "type": "string"
        },
        {
          "internalType": "uint256",
          "name": "_fare",
          "type": "uint256"
        },
        {
          "internalType": "string",
          "name": "_date",
          "type": "string"
        },
        {
          "internalType": "string",
          "name": "_time",
          "type": "string"
        }
      ],
      "name": "Book",
      "outputs": [],
      "stateMutability": "nonpayable",
      "type": "function"
    },
    {
      "inputs": [
        {
          "internalType": "address",
          "name": "_user",
          "type": "address"
        }
      ],
      "name": "endRideForUser",
      "outputs": [],
      "stateMutability": "nonpayable",
      "type": "function"
    }
  ],
  "bytecode": "0x6080604052600060055534801561001557600080fd5b5061150e806100256000396000f3fe608060405234801561001057600080fd5b50600436106100885760003560e01c8063910bc1401161005b578063910bc14014610147578063b48e82b514610177578063b6347b6414610195578063f97ba405146101c557610088565b806308bdc24d1461008d5780633a3c4106146100bd5780633f486d92146100f457806381e7e20e14610110575b600080fd5b6100a760048036036100a29190810190610e97565b6101e1565b6040516100b491906112b1565b60405180910390f35b6100d760048036036100d29190810190610fea565b610201565b6040516100eb989796959493929190611210565b60405180910390f35b61010e60048036036101099190810190610ec0565b610561565b005b61012a60048036036101259190810190610e97565b610974565b60405161013e989796959493929190611210565b60405180910390f35b610161600480360361015c9190810190610e97565b610cd4565b60405161016e91906112b1565b60405180910390f35b61017f610cf4565b60405161018c91906112ee565b60405180910390f35b6101af60048036036101aa9190810190610e97565b610cfa565b6040516101bc91906112b1565b60405180910390f35b6101df60048036036101da9190810190610e97565b610d1a565b005b60036020528060005260406000206000915054906101000a900460ff1681565b60046020528060005260406000206000915090508060000160009054906101000a900473ffffffffffffffffffffffffffffffffffffffff1690806001015490806002018054600181600116156101000203166002900480601f0160208091040260200160405190810160405280929190818152602001828054600181600116156101000203166002900480156102d95780601f106102ae576101008083540402835291602001916102d9565b820191906000526020600020905b8154815290600101906020018083116102bc57829003601f168201915b505050505090806003018054600181600116156101000203166002900480601f0160208091040260200160405190810160405280929190818152602001828054600181600116156101000203166002900480156103775780601f1061034c57610100808354040283529160200191610377565b820191906000526020600020905b81548152906001019060200180831161035a57829003601f168201915b505050505090806004018054600181600116156101000203166002900480601f0160208091040260200160405190810160405280929190818152602001828054600181600116156101000203166002900480156104155780601f106103ea57610100808354040283529160200191610415565b820191906000526020600020905b8154815290600101906020018083116103f857829003601f168201915b505050505090806005015490806006018054600181600116156101000203166002900480601f0160208091040260200160405190810160405280929190818152602001828054600181600116156101000203166002900480156104b95780601f1061048e576101008083540402835291602001916104b9565b820191906000526020600020905b81548152906001019060200180831161049c57829003601f168201915b505050505090806007018054600181600116156101000203166002900480601f0160208091040260200160405190810160405280929190818152602001828054600181600116156101000203166002900480156105575780601f1061052c57610100808354040283529160200191610557565b820191906000526020600020905b81548152906001019060200180831161053a57829003601f168201915b5050505050905088565b6040518061010001604052808973ffffffffffffffffffffffffffffffffffffffff16815260200188815260200187815260200186815260200185815260200184815260200183815260200182815250600260008a73ffffffffffffffffffffffffffffffffffffffff1673ffffffffffffffffffffffffffffffffffffffff16815260200190815260200160002060008201518160000160006101000a81548173ffffffffffffffffffffffffffffffffffffffff021916908373ffffffffffffffffffffffffffffffffffffffff16021790555060208201518160010155604082015181600201908051906020019061065d929190610d74565b50606082015181600301908051906020019061067a929190610d74565b506080820151816004019080519060200190610697929190610d74565b5060a0820151816005015560c08201518160060190805190602001906106be929190610d74565b5060e08201518160070190805190602001906106db929190610d74565b509050506005600081548092919060010191905055506000600160008a73ffffffffffffffffffffffffffffffffffffffff1673ffffffffffffffffffffffffffffffffffffffff16815260200190815260200160002060006101000a81548160ff0219169083151502179055506040518061010001604052808973ffffffffffffffffffffffffffffffffffffffff1681526020018881526020018781526020018681526020018581526020018481526020018381526020018281525060046000600554815260200190815260200160002060008201518160000160006101000a81548173ffffffffffffffffffffffffffffffffffffffff021916908373ffffffffffffffffffffffffffffffffffffffff16021790555060208201518160010155604082015181600201908051906020019061081b929190610d74565b506060820151816003019080519060200190610838929190610d74565b506080820151816004019080519060200190610855929190610d74565b5060a0820151816005015560c082015181600601908051906020019061087c929190610d74565b5060e0820151816007019080519060200190610899929190610d74565b509050506000600360008a73ffffffffffffffffffffffffffffffffffffffff1673ffffffffffffffffffffffffffffffffffffffff16815260200190815260200160002060006101000a81548160ff0219169083151502179055507f97824ccfba9f2995233a8279692a8184930d61d9192a929a005475f8de902089600260008a73ffffffffffffffffffffffffffffffffffffffff1673ffffffffffffffffffffffffffffffffffffffff16815260200190815260200160002060405161096291906112cc565b60405180910390a15050505050505050565b60026020528060005260406000206000915090508060000160009054906101000a900473ffffffffffffffffffffffffffffffffffffffff1690806001015490806002018054600181600116156101000203166002900480601f016020809104026020016040519081016040528092919081815260200182805460018160011615610100020316600290048015610a4c5780601f10610a2157610100808354040283529160200191610a4c565b820191906000526020600020905b815481529060010190602001808311610a2f57829003601f168201915b505050505090806003018054600181600116156101000203166002900480601f016020809104026020016040519081016040528092919081815260200182805460018160011615610100020316600290048015610aea5780601f10610abf57610100808354040283529160200191610aea565b820191906000526020600020905b815481529060010190602001808311610acd57829003601f168201915b505050505090806004018054600181600116156101000203166002900480601f016020809104026020016040519081016040528092919081815260200182805460018160011615610100020316600290048015610b885780601f10610b5d57610100808354040283529160200191610b88565b820191906000526020600020905b815481529060010190602001808311610b6b57829003601f168201915b505050505090806005015490806006018054600181600116156101000203166002900480601f016020809104026020016040519081016040528092919081815260200182805460018160011615610100020316600290048015610c2c5780601f10610c0157610100808354040283529160200191610c2c565b820191906000526020600020905b815481529060010190602001808311610c0f57829003601f168201915b505050505090806007018054600181600116156101000203166002900480601f016020809104026020016040519081016040528092919081815260200182805460018160011615610100020316600290048015610cca5780601f10610c9f57610100808354040283529160200191610cca565b820191906000526020600020905b815481529060010190602001808311610cad57829003601f168201915b5050505050905088565b60006020528060005260406000206000915054906101000a900460ff1681565b60055481565b60016020528060005260406000206000915054906101000a900460ff1681565b60018060008373ffffffffffffffffffffffffffffffffffffffff1673ffffffffffffffffffffffffffffffffffffffff16815260200190815260200160002060006101000a81548160ff02191690831515021790555050565b828054600181600116156101000203166002900490600052602060002090601f016020900481019282601f10610db557805160ff1916838001178555610de3565b82800160010185558215610de3579182015b82811115610de2578251825591602001919060010190610dc7565b5b509050610df09190610df4565b5090565b610e1691905b80821115610e12576000816000905550600101610dfa565b5090565b90565b600081359050610e28816114aa565b92915050565b600082601f830112610e3f57600080fd5b8135610e52610e4d82611336565b611309565b91508082526020830160208301858383011115610e6e57600080fd5b610e79838284611416565b50505092915050565b600081359050610e91816114c1565b92915050565b600060208284031215610ea957600080fd5b6000610eb784828501610e19565b91505092915050565b600080600080600080600080610100898b031215610edd57600080fd5b6000610eeb8b828c01610e19565b9850506020610efc8b828c01610e82565b975050604089013567ffffffffffffffff811115610f1957600080fd5b610f258b828c01610e2e565b965050606089013567ffffffffffffffff811115610f4257600080fd5b610f4e8b828c01610e2e565b955050608089013567ffffffffffffffff811115610f6b57600080fd5b610f778b828c01610e2e565b94505060a0610f888b828c01610e82565b93505060c089013567ffffffffffffffff811115610fa557600080fd5b610fb18b828c01610e2e565b92505060e089013567ffffffffffffffff811115610fce57600080fd5b610fda8b828c01610e2e565b9150509295985092959890939650565b600060208284031215610ffc57600080fd5b600061100a84828501610e82565b91505092915050565b61101c816113ce565b82525050565b61102b816113ce565b82525050565b61103a816113e0565b82525050565b600061104b82611377565b6110558185611393565b9350611065818560208601611425565b61106e8161148c565b840191505092915050565b60008154600181166000811461109657600181146110bc57611100565b607f60028304166110a78187611382565b955060ff198316865260208601935050611100565b600282046110ca8187611382565b95506110d585611362565b60005b828110156110f7578154818901526001820191506020810190506110d8565b80880195505050505b505092915050565b60006101008301600080840154905061112081611458565b61112d6000870182611013565b506001840154905061113e81611472565b61114b60208701826111f2565b506002840185830360408701526111628382611079565b92505060038401858303606087015261117b8382611079565b9250506004840185830360808701526111948382611079565b925050600584015490506111a781611472565b6111b460a08701826111f2565b506006840185830360c08701526111cb8382611079565b9250506007840185830360e08701526111e48382611079565b925050819250505092915050565b6111fb8161140c565b82525050565b61120a8161140c565b82525050565b600061010082019050611226600083018b611022565b611233602083018a611201565b81810360408301526112458189611040565b905081810360608301526112598188611040565b9050818103608083015261126d8187611040565b905061127c60a0830186611201565b81810360c083015261128e8185611040565b905081810360e08301526112a28184611040565b90509998505050505050505050565b60006020820190506112c66000830184611031565b92915050565b600060208201905081810360008301526112e68184611108565b905092915050565b60006020820190506113036000830184611201565b92915050565b6000604051905081810181811067ffffffffffffffff8211171561132c57600080fd5b8060405250919050565b600067ffffffffffffffff82111561134d57600080fd5b601f19601f8301169050602081019050919050565b60008190508160005260206000209050919050565b600081519050919050565b600082825260208201905092915050565b600082825260208201905092915050565b600073ffffffffffffffffffffffffffffffffffffffff82169050919050565b6000819050919050565b60006113d9826113ec565b9050919050565b60008115159050919050565b600073ffffffffffffffffffffffffffffffffffffffff82169050919050565b6000819050919050565b82818337600083830152505050565b60005b83811015611443578082015181840152602081019050611428565b83811115611452576000848401525b50505050565b600061146b6114668361149d565b6113a4565b9050919050565b60006114856114808361149d565b6113c4565b9050919050565b6000601f19601f8301169050919050565b60008160001c9050919050565b6114b3816113ce565b81146114be57600080fd5b50565b6114ca8161140c565b81146114d557600080fd5b5056fea264697066735822122008c575e2a59c4fd7e38165122a1350c6410ee6eef83612e1025c3e276a4dc45f64736f6c63430006020033",
  "source": "pragma solidity >=0.6.2;\r\npragma experimental ABIEncoderV2;\r\n\r\ncontract User{\r\n\t\r\n     struct Users{\r\n        address _userAddress;\r\n        uint _distanceTravelled;\r\n        string _pickUp;\r\n        string _drop;\r\n        string _carType;\r\n        uint _fare;\r\n        string _date;\r\n        string _time;\r\n    }\r\n\r\n    event ForUser(Users _users);\r\n    \r\n    mapping(address => bool) public startRide;\r\n    mapping(address => bool) public endRide;\r\n\r\n    mapping(address => Users) public user;\r\n    mapping(address => bool) public acceptUser;\r\n    mapping(uint=>Users) public totalUser;\r\n    uint256 public totCount=0;\r\n\r\n    function Book(address _user,uint _distanceTravelled,string memory _pickUp,string memory _drop,string memory _carType,uint _fare,string memory _date,string memory _time) public {\r\n                       user[_user] = Users(_user,_distanceTravelled,_pickUp,_drop,_carType,_fare,_date,_time);\r\n                       totCount++;\r\n                       endRide[_user] = false;\r\n                       totalUser[totCount] = Users(_user,_distanceTravelled,_pickUp,_drop,_carType,_fare,_date,_time);\r\n                       acceptUser[_user] = false;\r\n                       emit ForUser(user[_user]);\r\n    }\r\n\r\n\r\n\r\n\r\n   function endRideForUser(address _user) public{\r\n               endRide[_user] = true;\r\n   }\r\n\r\n}",
  "sourcePath": "D:/ubun/LessBugs/contracts/User.sol",
  "compiler": {
    "name": "solc",
    "version": "0.6.2+commit.bacdbe57.Emscripten.clang"
  },
  "schemaVersion": "3.2.3",
  "updatedAt": "2020-09-09T09:41:17.110Z",
  "networkType": "ethereum",
  "devdoc": {
    "methods": {}
  },
  "userdoc": {
    "methods": {}
  }
}